S01700004F4F20736F6C7574696F6E20302E352E737265631F
S11300000C9434000C943E000C943E000C943E007E
S11300100C943E000C943E000C943E000C943E0064
S11300200C943E000C943E000C943E000C943E0054
S11300300C943E000C943E000C943E000C943E0044
S11300400C943E000C943E000C943E000C943E0034
S11300500C943E000C943E000C943E000C943E0024
S11300600C943E000C943E0011241FBECFEFD8E048
S1130070DEBFCDBF0E947E000C9497000C9400005C
S113008044B121E030E0062E02C0220F331F0A944F
S1130090E2F7242B24B9FC016083089545B121E0E3
S11300A030E0B901FC01008002C0660F771F0A949A
S11300B0E2F7CB01842B85B90895FC0194B121E0CA
S11300C030E0062E02C0220F331F0A94E2F7822F7B
S11300D08095982394B98BB1282B2BB9608308950C
S11300E0FC0193B1892F90E0008002C0959587951B
S11300F00A94E2F721E0822781700895CF93DF9379
S113010000D0CDB7DEB760E0CE0101960E945D005D
S113011061E0CE0102960E944000CE0101960E9449
S11301207000682FCE0102960E944E00F6CFF8941C
S1050130FFCFFB
S9030000FC
