S01D0000746573745F6F665F685F616E645F635F66696C65732E7372656386
S11300000C9434000C943E000C943E000C943E007E
S11300100C943E000C943E000C943E000C943E0064
S11300200C943E000C943E000C943E000C943E0054
S11300300C943E000C943E000C943E000C943E0044
S11300400C943E000C943E000C943E000C943E0034
S11300500C943E000C943E000C943E000C943E0024
S11300600C943E000C943E0011241FBECFEFD8E048
S1130070DEBFCDBF0E9487000C9495000C94000055
S113008094B121E030E002C0220F331F8A95E2F7D9
S1130090292B24B9089544B121E030E0B90102C00C
S11300A0660F771F8A95E2F7CB01962F9095492327
S11300B044B995B1892B85B9089523B130E0A901DC
S11300C002C0559547958A95E2F7CA0151E0852704
S11300D081700895662369F045B121E030E0B901EB
S11300E002C0660F771F8A95E2F7CB01842B85B98E
S11300F0089545B121E030E0B90102C0660F771FD1
S11301008A95E2F7CB018095842385B9089580E030
S11301100E94400081E00E944B0081E00E945D004B
S1110120682F80E00E946A00F8CFF894FFCFA9
S9030000FC
